:020000021000EC
:10E000000C9489F10C94B0F10C94B0F10C94B0F133
:10E010000C94B0F10C94B0F10C94B0F10C94B0F1FC
:10E020000C94B0F10C94B0F10C94B0F10C94B0F1EC
:10E030000C94B0F10C94B0F10C94B0F10C94B0F1DC
:10E040000C94B0F10C94B0F10C94B0F10C94B0F1CC
:10E050000C94B0F10C94B0F10C94B0F10C94B0F1BC
:10E060000C94B0F10C94B0F10C94B0F10C94B0F1AC
:10E070000C94B0F10C94B0F10C94B0F10C94B0F19C
:10E080000C94B0F10C94B0F10C94B0F10C94B0F18C
:10E090000C94B0F10C94B0F10C94B0F10C94B0F17C
:10E0A0000C94B0F10C94B0F10C94B0F10C94B0F16C
:10E0B0000C94B0F10C94B0F10C94B0F10C94B0F15C
:10E0C0000C94B0F10C94B0F10C94B0F10C94B0F14C
:10E0D0000C94B0F10C94B0F10C94B0F10C94B0F13C
:10E0E0000C94B0F12A00593D506F727420626C6933
:10E0F0006E6B00563D73686F7720696E746572723F
:10E1000075707420566563746F727300523D447568
:10E110006D702052414D00513D51756974004C3D68
:10E120004C69737420492F4F20506F7274730048EC
:10E130003D48656C7000463D44756D7020464C410D
:10E14000534800453D44756D7020454550524F4D34
:10E1500000423D426C696E6B204C454400403D4599
:10E160004550524F4D2074657374003F3D435055E8
:10E1700020737461747300303D5A65726F2061645E
:10E18000647200504F5254004545206572722063FE
:10E190006E743D0052656164696E672045450057A5
:10E1A00072697474696E672045450020004D75736F
:10E1B000742062652061206C657474657200506F14
:10E1C0007274206E6F7420737570706F72746564F2
:10E1D000005768617420706F72743A006A6D702025
:10E1E00000726A6D702020006E6F20766563746F18
:10E1F00072005623202020414444522020206F707A
:10E2000020636F64652020202020696E737472750E
:10E210006374696F6E2061646472202020496E749B
:10E2200065727275707400342E362E3300312E38BC
:10E230002E31004A616E2020312032303137004CBF
:10E240006F636B20667573652020203D2000457844
:10E25000742066757365202020203D200048696782
:10E260006820667573652020203D20004C6F772064
:10E2700066757365202020203D20004350552049BD
:10E28000442020202020203D200047434320566585
:10E290007273696F6E203D2000415652204C6962B6
:10E2A00043205665723D20005F5F4156525F4152E8
:10E2B00043485F5F3D2000435055205479706520EE
:10E2C0002020203D2000436F6D70696C6564206FD5
:10E2D0006E203D20004875683F00426F6F746C6F80
:10E2E000616465723E0041726475696E6F20657885
:10E2F000706C6F7265722073746B353030563220DB
:10E300006279204D4C530041546D6567613132385C
:10E31000300011241FBECFEFD1E2DEBFCDBF12E02F
:10E32000A0E0B2E0EAE7F9EF01E00BBF02C007901E
:10E330000D92A430B107D9F712E0A4E0B2E001C019
:10E340001D92A231B107E1F70E9408F30C94BBFCC7
:10E3500001E20EBF0FEF0DBF11241FBE0C9408F396
:10E360000C9400F08093C6008091C00086FFFCCF23
:10E370008091C00080648093C00008959C0180E07B
:10E3800090E040ED57E004C0FA013197F1F70196B3
:10E3900082179307C9F70895EF92FF921F93CF93C7
:10E3A000DF930F92CDB7DEB77C01862F90E0880F08
:10E3B000991F880F991F8E0D9F1DAA2797FDA09565
:10E3C000BA2FABBFFC011791112329F0812F69836C
:10E3D0000E94B2F169816F5F112339F70F90DF91CD
:10E3E000CF911F91FF90EF9008958DE00E94B2F1C0
:10E3F0008AE00E94B2F108950E94CCF10E94F5F1EA
:10E400000895CF93DF93EC018991882319F00E943E
:10E41000B2F1FACFDF91CF910895CF93C82F982F03
:10E4200092959F70892F805D8A3308F0895F0E94E2
:10E43000B2F1CF708C2F805D8A3308F0895F0E9423
:10E44000B2F1CF9108950F931F93CF93DF93EC0117
:10E450008B01853691051CF4633071054CF0CE01BB
:10E4600064E670E00E945CFC862F805D0E94B2F141
:10E47000CB30D1051CF4023011056CF0CE0164E6FE
:10E4800070E00E945CFC6AE070E00E945CFC862FF9
:10E49000805D0E94B2F1CE016AE070E00E945CFCF7
:10E4A000805D0E94B2F1DF91CF911F910F9108958D
:10E4B0008091C00087FFFCCF8091C6000895CF9364
:10E4C000C82F83E891EE60E00E94CCF18C2F0E946F
:10E4D000B2F10E94F5F1CF9108953F924F925F9271
:10E4E0006F927F928F929F92AF92BF92CF92DF9264
:10E4F000EF92FF920F931F93CF93DF93CDB7DEB7C9
:10E5000062970FB6F894DEBF0FBECDBF582E6A01DA
:10E510007B0110E144243EE2332E81E0C81680E006
:10E52000D80681E0E80680E0F80618F08E2D0E94FB
:10E530000DF28D2D0E940DF28C2D0E940DF280E2C5
:10E540000E94B2F18DE20E94B2F180E20E94B2F12B
:10E5500019823E010894611C711C4601570100E1BB
:10E5600091E0591651F0591620F0A2E05A1661F4C4
:10E5700009C0ABBEF401479007C0C4010E94A5FCCE
:10E58000482E02C0F4014080842D0E940DF280E2EA
:10E590000E94B2F1842D80528F3518F4F30140822D
:10E5A00002C0D3013C920894811C911CA11CB11C97
:10E5B00001500894611C711C002391F680E190E0E9
:10E5C000A0E0B0E0C80ED91EEA1EFB1E198ACE01DB
:10E5D00001960E9401F20E94F5F1115009F09DCFC1
:10E5E00062960FB6F894DEBF0FBECDBFDF91CF911C
:10E5F0001F910F91FF90EF90DF90CF90BF90AF9061
:10E600009F908F907F906F905F904F903F90089574
:10E61000CF93DF93CDB7DEB7CF53D1400FB6F89489
:10E62000DEBF0FBECDBF01E20EBF0FEF0DBF94B72F
:10E63000F894A89514BE8091600088618093600072
:10E6400010926000789493FF05C0E0910402F0916D
:10E6500005020995279A2F9A8091C00082608093C5
:10E66000C00080E18093C40088E18093C100000075
:10E67000CC24DD247601B4E04B2E512C17EC812EF6
:10E680001BE1912EA12CB12C00E010E024C0C201AE
:10E690000197F1F70894C11CD11CE11CF11C01E0A9
:10E6A00010E021E2C2162EE4D20620E0E20620E0CD
:10E6B000F20610F400E010E0C701B601A5019401D4
:10E6C0000E946FFCDC01CB010097A105B10519F494
:10E6D00085B1805885B98091C00087FD03C00115C0
:10E6E0001105A9F2C80101968130910511F00C9431
:10E6F0003EFC0C9407FC80E090E081309105D1F461
:10E7000021C00196A11DB11D813032E193073AE786
:10E71000A30730E0B30790F0AA24BB246501CBBE69
:10E72000F501879196910FEF8F3F900719F0EE2733
:10E73000FF27099480E090E0A0E0B0E03091C000B5
:10E7400037FFDFCF3091C6000894E11CF11C313255
:10E7500009F053C58AE0E816F10408F04EC50894A4
:10E76000411C511C93E04916510409F048C50FC0E3
:10E7700081E20E94B2F101501040D1F70E94F5F100
:10E780000894C108D108C114D104B1F418C0C85DFF
:10E79000DE4FF982E882C852D140C25EDE4F7983F3
:10E7A0006883CE51D140C45DDE4F59834883CC523B
:10E7B000D140A5E0CA2ED12C09E110E0D9CF1092AA
:10E7C0000E0210920F02109210021092110210927B
:10E7D0000A0210920B0210920C0210920D0210927B
:10E7E000060210920702109208021092090286EEA9
:10E7F00092EE60E00E94FCF1232C8AED92EE60E044
:10E800000E94CCF10E9458F2182F803608F01F7534
:10E81000103230F0812F0E94B2F180E20E94B2F1FA
:10E82000183409F4C3C11934B8F4123409F454C1CA
:10E83000133458F4103369F1103308F4D8C41F337B
:10E84000F1F1103409F0D3C4C3C0153409F45BC12D
:10E85000163409F0CCC485C1123509F40DC2133544
:10E8600088F41C3409F4E1C1113509F0C0C4322C1C
:10E8700087E191EE62E00E94FCF144245524882453
:10E88000839412C5163509F41CC2193509F0AFC4BA
:10E89000A3C387E791EE62E00E94FCF110920A02A6
:10E8A00010920B0210920C0210920D0210920E02A6
:10E8B00010920F02109210021092110204C18BE606
:10E8C00091EE62E00E94FCF186EE92EE60E00E9422
:10E8D000FCF186EC92EE60E00E94CCF183E392EED4
:10E8E00060E00E94FCF187EB92EE60E00E94CCF1C8
:10E8F00087E093EE60E00E94FCF188EA92EE60E02F
:10E900000E94CCF183E390E061E070E00E9423F28A
:10E910000E94F5F18AE892EE60E00E94CCF187E275
:10E9200092EE60E00E94FCF189E992EE60E00E94C4
:10E93000CCF18DE292EE60E00E94FCF18BE792EE6A
:10E9400060E00E94CCF18EE10E940DF287E90E9406
:10E950000DF283E00E940DF20E94F5F18CE692EE3A
:10E9600060E00E94CCF119E0E0E0F0E01093570085
:10E9700084910E940DF20E94F5F18DE592EE60E027
:10E980000E94CCF1E3E0F0E01093570084910E94E4
:10E990000DF20E94F5F18EE492EE60E00E94CCF15F
:10E9A000E2E0F0E01093570084910E940DF20E9483
:10E9B000F5F18FE392EE60E00E94CCF1E1E0F0E04F
:10E9C0001093570084910E940DF20E94F5F115CF2B
:10E9D0008DE591EE62E00E94FCF18FE991EE60E03E
:10E9E0000E94FCF10E94F5F1EE24FF2412C0C70141
:10E9F000612F0E94ADFC112331F48BEA91EE60E0AF
:10EA00000E94CCF103C0812F0E94B2F10894E11C56
:10EA1000F11CC7018A519D41AA2797FDA095BA2FE5
:10EA2000ABBFFC0117911A3229F0A0E0EA16A2E070
:10EA3000FA06E9F60E94F5F10E94F5F184E991EEFB
:10EA400060E00E94FCF10E94F5F1CC24DD24EE246C
:10EA5000FF2416C0C7010E94A5FC182F882331F49B
:10EA60008BEA91EE60E00E94CCF102C00E94B2F10C
:10EA7000101719F00894C11CD11C0894E11CF11C5A
:10EA800087010A511D41222717FD2095322F2BBFE8
:10EA9000F80107910A3229F0B0E0EB16B2E0FB066C
:10EAA000C9F60E94F5F10E94F5F188E891EE60E068
:10EAB0000E94CCF1C60161E070E00E9423F20E9446
:10EAC000F5F10E94F5F110920602109207021092E1
:10EAD00008021092090291CE81E591EE62E00E9457
:10EAE000FCF1279A2F9A0AC02F9884E690E00E94A2
:10EAF000BEF12F9A84E690E00E94BEF18091C000A2
:10EB000087FFF2CF6EC383E491EE62E00E94FCF1D6
:10EB1000409106025091070260910802709109022B
:10EB200081E00E946DF28091060290910702A0910F
:10EB30000802B091090280509F4FAF4FBF4F8093A2
:10EB4000060290930702A0930802B0930902803056
:10EB5000E0E19E07E0E0AE07E0E0BE0708F44DCE3E
:10EB6000B2CF86E391EE62E00E94FCF140910A028E
:10EB700050910B0260910C0270910D0280E00E9496
:10EB80006DF280910A0290910B02A0910C02B0915B
:10EB90000D0280509F4FAF4FBF4F80930A0290935A
:10EBA0000B02A0930C02B0930D0227CE8FE291EEE0
:10EBB00062E00E94FCF187E791EE60E00E94FCF1C8
:10EBC0008BE691EE60E00E94FCF18DE591EE60E055
:10EBD0000E94FCF181E591EE60E00E94FCF183E48B
:10EBE00091EE60E00E94FCF186E391EE60E00E940D
:10EBF000FCF18FE291EE60E00E94FCF18EE191EE7B
:10EC000060E00E94FCF187E191EE60E00E94FCF17F
:10EC10008CE091EE60E00E94FCF183EF90EE60E00A
:10EC20000E94FCF186EE90EEE4C28EE191EE62E08D
:10EC30000E94FCF181E40E945FF282E40E945FF294
:10EC400083E40E945FF284E40E945FF285E40E9404
:10EC50005FF286E40E945FF287E40E945FF288E43C
:10EC60000E945FF28AE40E945FF28BE40E945FF2EE
:10EC70008CE40E945FF2C1CD8CE091EE62E00E94D4
:10EC8000FCF140910E0250910F02609110027091C0
:10EC9000110282E00E946DF280910E0290910F02AB
:10ECA000A0911002B091110280509F4FAF4FBF4F03
:10ECB00080930E0290930F02A0931002B093110262
:10ECC0009CCD83EF90EE62E00E94FCF187E093EE32
:10ECD00060E00E94FCF182EF91EE60E00E94FCF1A6
:10ECE000C65DDE4F19821882CA52D1404424552491
:10ECF000320163015201D694C794B794A794CE5CB5
:10ED0000DE4FA882B982CA82DB82C253D140C65D7F
:10ED1000DE4F08811981CA52D1400F5F1F4FC65D77
:10ED2000DE4F19830883CA52D140C80162E070E007
:10ED30000E9423F280E20E94B2F18DE20E94B2F1C1
:10ED400080E20E94B2F180E00E940DF2CE5CDE4FC4
:10ED50008881C253D1400E940DF280E20E94B2F13C
:10ED60008DE30E94B2F180E20E94B2F16BBEF2012B
:10ED70008790282D30E040E050E0C25DDE4F2883D0
:10ED800039834A835B83CE52D140D301C2010196BD
:10ED9000A11DB11DABBFFC018791482F50E060E081
:10EDA00070E0CA5CDE4F488359836A837B83C65315
:10EDB000D140930182010D5F1F4F2F4F3F4FB30191
:10EDC000A2014E5F5F4F6F4F7F4F6BBFFA013790CD
:10EDD000E4E0AE2EB12CC12CD12C4A0C5B1C6C1C77
:10EDE0007D1C2BBFF8011791CA5CDE4F2881398149
:10EDF0004A815B81C653D140CC24D22EE32EF42E1F
:10EE0000C25DDE4F488159816A817B81CE52D140FB
:10EE1000C40ED51EE61EF71E0E940DF280E20E946F
:10EE2000B2F1882D0E940DF280E20E94B2F1812F92
:10EE30000E940DF280E20E94B2F1832D0E940DF239
:10EE400080E20E94B2F15FEFC5165FEFD50650E099
:10EE5000E50650E0F50631F488EE91EE60E00E94A0
:10EE6000CCF1ADC0D701C6018070907CA070B070AD
:10EE7000803060EC960760E0A60760E0B60701F519
:10EE8000FFEF8F2EFFE39F2EA12CB12C8C209D2015
:10EE9000AE20BF20CE5CDE4FC880D980EA80FB80E8
:10EEA000C253D140C80CD91CEA1CFB1CCC0CDD1C85
:10EEB000EE1CFF1C81EE91EE60E00E94CCF16AC076
:10EEC000D701C6018E709E7FA070B0708C3074E93F
:10EED000970770E0A70770E0B70709F070C0812FAF
:10EEE00090E0A0E0B0E08824982EA92EBA2E830CE2
:10EEF000911CA11CB11CC25DDE4F88819981AA8141
:10EF0000BB81CE52D14081709070A070B070DC0196
:10EF100099278827880E991EAA1EBB1EC25DDE4F48
:10EF200088819981AA81BB81CE52D140807F907027
:10EF3000A070B07061E1880F991FAA1FBB1F6A956E
:10EF4000D1F7880E991EAA1EBB1ECA5CDE4F8881AF
:10EF50009981AA81BB81C653D14081709070A07005
:10EF6000B07075E1880F991FAA1FBB1F7A95D1F762
:10EF7000880E991EAA1EBB1E75016401CC0CDD1CF7
:10EF8000EE1CFF1C8CED91EE60E00E94CCF18A2D0E
:10EF90000E940DF2892D0E940DF2882D0E940DF223
:10EFA00080E20E94B2F18EE30E94B2F18E2D0E94A7
:10EFB0000DF28D2D0E940DF28C2D0E940DF20E94FB
:10EFC000F5F1C65DDE4F08811981CA52D14009337F
:10EFD000110509F08ECE11CC86EE90EE62E00E9413
:10EFE000FCF181ED91EE60E00E94CCF10E9458F2BC
:10EFF000182F1F75812F0E94B2F10E94F5F1812F09
:10F0000081548A3108F0F0C0163409F477C01734FF
:10F0100090F4133409F442C0143430F41134F1F094
:10F02000123409F0DBC02AC0143409F447C0153487
:10F0300009F0D4C053C01A3409F494C01B3438F416
:10F04000173409F46BC0183409F0C8C077C01B34FA
:10F0500009F49CC01C3409F0C1C0ACC08FEF81B969
:10F0600007C082B1809582B988EC90E00E94BEF121
:10F070008091C00087FFF5CF12B8B3C08FEF84B97D
:10F0800007C085B1809585B988EC90E00E94BEF1FB
:10F090008091C00087FFF5CF15B8A3C08FEF87B967
:10F0A00007C088B1809588B988EC90E00E94BEF1D5
:10F0B0008091C00087FFF5CF18B893C08FEF8AB951
:10F0C00007C08BB180958BB988EC90E00E94BEF1AF
:10F0D0008091C00087FFF5CF1BB883C08FEF8DB93B
:10F0E00007C08EB180958EB988EC90E00E94BEF189
:10F0F0008091C00087FFF5CF1EB873C08FEF80BB33
:10F1000007C081B3809581BB88EC90E00E94BEF17E
:10F110008091C00087FFF5CF11BA63C08FEF83BB2A
:10F1200007C084B3809584BB88EC90E00E94BEF158
:10F130008091C00087FFF5CF14BA53C08FEF809342
:10F14000010109C08091020180958093020188EC41
:10F1500090E00E94BEF18091C00087FFF3CF109233
:10F1600002013FC08FEF8093040109C08091050127
:10F1700080958093050188EC90E00E94BEF180911B
:10F18000C00087FFF3CF109205012BC08FEF809353
:10F19000070109C08091080180958093080188ECDF
:10F1A00090E00E94BEF18091C00087FFF3CF1092E3
:10F1B000080117C08FEF80930A0109C080910B01ED
:10F1C000809580930B0188EC90E00E94BEF18091C5
:10F1D000C00087FFF3CF10920B0103C08EEB91EEBE
:10F1E00008C00E9458F209CB8DEA91EE02C085ED6D
:10F1F00092EE60E00E94FCF100CB442455242330C1
:10F20000D9F0243028F4213071F0223080F407C086
:10F21000253009F12530B8F0263081F52BC03B317F
:10F2200009F069CA3FC31327332E22E064CA732F43
:10F2300060E0132723E05FCA832F90E0682B792BCF
:10F24000132724E058CA3E3009F030C3132740E0AA
:10F2500050E025E050CAE1E0F0E0EC0FFD1FE40FC4
:10F26000F51F30834F5F5F4F13274617570709F08D
:10F2700042CA1FC3311709F019C303C0273009F070
:10F280003ACAC85DDE4FF982E882C852D140C25EF8
:10F29000DE4F79836883CE51D140C45DDE4F598300
:10F2A0004883CC52D14088249981933109F414C108
:10F2B0009431C8F4963009F4DAC0973050F49230A3
:10F2C00009F460C2933009F468C0913009F04DC26E
:10F2D0004EC0913109F454C2923108F0B5C090315A
:10F2E00009F043C2F7C0983109F485C0993150F450
:10F2F000953109F4F1C0953108F4B5C1963109F0A2
:10F3000034C2B1C19A3109F46AC09A3108F48BC091
:10F310009B3109F457C09D3109F027C28D8180339C
:10F3200039F49F819923A9F09130A9F4E7E916C037
:10F33000982F907591F0803519F4E0E0F0E004C06A
:10F34000883559F4E3E0F0E099E090935700E491B8
:10F3500005C0EEE103C0E3E001C0E0E01A821B82D9
:10F360008C831D82EE831F8227E030E024C01A8246
:10F3700088E08B8381E48C8386E58D8382E58E83B0
:10F3800089E48F8383E5888780E589878FE58A878D
:10F3900082E38B870BE010E0ECC1EA81E059E330B7
:10F3A00028F4F0E0E050FE4F808101C080E01A8236
:10F3B0008B8323E030E0C25EDE4F39832883CE5159
:10F3C000D140E0C18D81882321F0813021F487E98B
:10F3D00003C08EE101C083E01A828B8320C01A82B1
:10F3E000E1E0F0E089E080935700E491EB831C8238
:10F3F00004E010E0BEC18B81803549F48C818830F7
:10F4000019F4E2E0F0E005C0E0E0F0E002C0E3E083
:10F41000F0E089E080935700E4911A82EB831C822C
:10F4200024E030E0C8CF8D81836C99E0E1E0F0E02A
:10F43000082E90935700E89507B600FCFDCF1A827E
:10F440001B8203E010E095C180EC8A8322E030E06B
:10F45000C25EDE4F39832883CE51D140CC5DDE4F72
:10F46000188219821A821B82C452D1408BC18A81B0
:10F4700090E0A0E0B0E0D82ECC24BB24AA248B815D
:10F4800090E0A0E0B0E0DC0199278827A82AB92AFB
:10F49000CA2ADB2A8D8190E0A0E0B0E0A82AB92A30
:10F4A000CA2ADB2A8C8190E0A0E0B0E0BA2FA92F15
:10F4B000982F8827A82AB92ACA2ADB2AAA0CBB1C9B
:10F4C000CC1CDD1CC05EDE4FA882B982CA82DB8202
:10F4D000C052D1401A824BC11A81C55CDE4F1883DD
:10F4E000CB53D140C65CDE4F1882CA53D1402B812A
:10F4F00030E0C65CDE4FA880B980CA53D1402A29CB
:10F500003B29933109F070C0CC5DDE4F48815981B1
:10F510006A817B81C452D140403080EC580781E041
:10F52000680780E07807F0F483E0FA0160935B00FD
:10F5300080935700E89507B600FCFDCFCC5DDE4F09
:10F54000488159816A817B81C452D14040505F4FCC
:10F550006F4F7F4FCC5DDE4F488359836A837B8337
:10F56000C452D1408B85DE011D96C05EDE4F4881BE
:10F5700059816A817B81C052D14011E0FD013197F0
:10F58000F080EE2490E08E299F290C01FA0160930F
:10F590005B0010935700E89511244E5F5F4F6F4F4B
:10F5A0007F4F2250304019F08C911296E7CFC25C09
:10F5B000DE4FF982E882CE53D14085E0C05EDE4F57
:10F5C000A880B980CA80DB80C052D140F501C092CA
:10F5D0005B0080935700E89507B600FCFDCF81E102
:10F5E00080935700E89535C0F901C05EDE4F488131
:10F5F00059816A817B81C052D1408E01055F1F4FC6
:10F6000041BDBB27A72F962F852F82BD4F5F5F4F30
:10F610006F4F7F4FD8018D918D0180BDFA9AF99A75
:10F62000F999FECF319761F7C9010197AC0160E00C
:10F6300070E04F5F5F4F6F4F7F4FC05EDE4FA8801F
:10F64000B980CA80DB80C052D1404A0D5B1D6C1D61
:10F650007D1D1A82C05EDE4F488359836A837B8397
:10F66000C052D14084C01A81C35CDE4F1883CD5391
:10F67000D140C45CDE4F1882CC53D1402B8130E0A6
:10F68000C45CDE4FA880B980CC53D1402A293B29E5
:10F6900089010D5F1F4FC25EDE4F19830883CE5173
:10F6A000D1401A82943119F5DE011396C05EDE4F07
:10F6B000488159816A817B81C052D1406BBFFA0178
:10F6C000879196918C9311969C93119712964E5F09
:10F6D0005F4F6F4F7F4F2250304081F7C05EDE4F4B
:10F6E000488359836A837B83C052D1403CC0F9016F
:10F6F000C05EDE4F488159816A817B81C052D14012
:10F700008E010D5F1F4F41BDBB27A72F962F852F61
:10F7100082BD4F5F5F4F6F4F7F4FF89A80B5D80122
:10F720008D938D01319779F7C9010197A0E0B0E081
:10F730000196A11DB11DC05EDE4FA880B980CA80B0
:10F74000DB80C052D140A80EB91ECA1EDB1EC05EAF
:10F75000DE4FA882B982CA82DB82C052D140DE016C
:10F760001396A20FB31F1C920DC080EC8A8302E097
:10F7700010E0C25EDE4F19830883CE51D14002C033
:10F78000882483948BE10E94B2F1832D0E94B2F110
:10F79000C15EDE4F0881CF51D140802F0E94B2F16F
:10F7A000C25EDE4FC880CE51D1408C2D0E94B2F196
:10F7B0008EE00E94B2F115E113251C2510276E0181
:10F7C0000894C11CD11C7201482CC25EDE4F888097
:10F7D0009980CE51D1400AC0D6010D916D01802F84
:10F7E0000E94B2F1102708948108910881149104B5
:10F7F00099F7842C2701812F0E94B2F1339485B1AF
:10F80000805885B98820D1F580E090E020C0C85D9F
:10F81000DE4F19821882C852D14044245524332423
:10F8200010E0C45DDE4F19821882CC52D140CC5D0D
:10F83000DE4F188219821A821B82C452D140C05EE8
:10F84000DE4F188219821A821B82C052D140C25EDA
:10F85000DE4F19821882CE51D14020E0C85DDE4FC4
:10F86000E880F980C852D14060E070E0C45DDE4FAE
:10F8700048815981CC52D1400C947DF327982F9820
:10F8800084E690E00E94BEF100008091C0008D7F70
:10F890008093C00081E180935700E895EE27FF2711
:10F8A0000994FFCF1BE121E00C947BF320E00C9442
:10F8B0007BF326E00C947BF397FB092E07260AD0F6
:10F8C00077FD04D02ED006D000201AF470956195F3
:10F8D0007F4F0895F6F7909581959F4F0895A1E287
:10F8E0001A2EAA1BBB1BFD010DC0AA1FBB1FEE1FBA
:10F8F000FF1FA217B307E407F50720F0A21BB30B05
:10F90000E40BF50B661F771F881F991F1A9469F780
:10F9100060957095809590959B01AC01BD01CF01DC
:10F920000895AA1BBB1B51E107C0AA1FBB1FA61746
:10F93000B70710F0A61BB70B881F991F5A95A9F798
:10F9400080959095BC01CD010895F999FECF92BDA7
:10F9500081BDF89A992780B50895262FF999FECF91
:10F960001FBA92BD81BD20BD0FB6F894FA9AF99ADC
:0AF970000FBE01960895F894FFCF32
:04F97A000F020A006E
:040000031000E00009
:00000001FF
