:020000023000CC
:10E000000D948BF10D94B4F10D94B4F10D94B4F121
:10E010000D94B4F10D94B4F10D94B4F10D94B4F1E8
:10E020000D94B4F10D94B4F10D94B4F10D94B4F1D8
:10E030000D94B4F10D94B4F10D94B4F10D94B4F1C8
:10E040000D94B4F10D94B4F10D94B4F10D94B4F1B8
:10E050000D94B4F10D94B4F10D94B4F10D94B4F1A8
:10E060000D94B4F10D94B4F10D94B4F10D94B4F198
:10E070000D94B4F10D94B4F10D94B4F10D94B4F188
:10E080000D94B4F10D94B4F10D94B4F10D94B4F178
:10E090000D94B4F10D94B4F10D94B4F10D94B4F168
:10E0A0000D94B4F10D94B4F10D94B4F10D94B4F158
:10E0B0000D94B4F10D94B4F10D94B4F10D94B4F148
:10E0C0000D94B4F10D94B4F10D94B4F10D94B4F138
:10E0D0000D94B4F10D94B4F10D94B4F10D94B4F128
:10E0E0000D94B4F12A00593D506F727420626C692E
:10E0F0006E6B00563D73686F7720696E746572723F
:10E1000075707420566563746F727300523D447568
:10E110006D702052414D00513D51756974004C3D68
:10E120004C69737420492F4F20506F7274730048EC
:10E130003D48656C7000463D44756D7020464C410D
:10E14000534800453D44756D7020454550524F4D34
:10E1500000423D426C696E6B204C454400403D4599
:10E160004550524F4D2074657374003F3D435055E8
:10E1700020737461747300303D5A65726F2061645E
:10E18000647200504F5254004545206572722063FE
:10E190006E743D0052656164696E672045450057A5
:10E1A00072697474696E672045450020004D75736F
:10E1B000742062652061206C657474657200506F14
:10E1C0007274206E6F7420737570706F72746564F2
:10E1D000005768617420706F72743A006A6D702025
:10E1E00000726A6D702020006E6F20766563746F18
:10E1F00072005623202020414444522020206F707A
:10E2000020636F64652020202020696E737472750E
:10E210006374696F6E2061646472202020496E749B
:10E2200065727275707400342E382E3100312E38BC
:10E230002E3073766E004F637420323520323031C9
:10E2400034004C6F636B20667573652020203D2081
:10E25000004578742066757365202020203D2000DD
:10E260004869676820667573652020203D20004C52
:10E270006F772066757365202020203D2000435075
:10E28000552049442020202020203D2000474343A2
:10E290002056657273696F6E203D200041565220F2
:10E2A0004C696243205665723D20005F5F415652C3
:10E2B0005F415243485F5F3D2000435055205479F1
:10E2C0007065202020203D2000436F6D70696C65D3
:10E2D00064206F6E203D20004875683F00426F6FDC
:10E2E000746C6F616465723E0041726475696E6F33
:10E2F000206578706C6F7265722073746B35303086
:10E300005632206279204D4C530041546D6567614F
:10E3100032353630000011241FBECFEFD1E2DEBF10
:10E32000CDBF01E00CBF12E0A0E0B2E0E0EAF7EF01
:10E3300003E00BBF02C007900D92A430B107D9F7DC
:10E3400022E0A4E0B2E001C01D92A231B207E1F7E1
:10E350000F941CF30D94CEFB01E20EBF0FEF0DBF27
:10E3600011241FBE0D941CF30D9400F08093C60081
:10E370008091C00086FFFCCF8091C00080648093B4
:10E38000C000089520E030E02817390749F0EFEC8D
:10E39000F7E03197F1F700C000002F5F3F4FF4CF57
:10E3A00008950F931F93CF93DF93EC01162FAE01C7
:10E3B00084E0189F400D511D1124662757FD60957C
:10E3C000762F6BBFFA010791002319F0802F0F946D
:10E3D000B6F11F5F0111EBCFDF91CF911F910F912C
:10E3E00008958DE00F94B6F18AE00D94B6F10F9484
:10E3F000D1F10D94F1F1CF93DF93EC018991882352
:10E4000019F00F94B6F1FACFDF91CF910895CF9321
:10E41000C82F82958F7090E3980F9A3310F097E38E
:10E42000980F892F0F94B6F1CF7080E38C0F8A3349
:10E4300010F087E38C0FCF910D94B6F10F931F93DB
:10E44000CF93DF93EC018B01853691051CF463308B
:10E4500071054CF0CE0164E670E00F946EFB80E332
:10E46000860F0F94B6F1CB30D1051CF402301105A4
:10E470006CF0CE0164E670E00F946EFB6AE070E031
:10E480000F946EFB80E3860F0F94B6F1CE016AE025
:10E4900070E00F946EFB805DDF91CF911F910F9123
:10E4A0000D94B6F18091C00087FFFCCF8091C6002B
:10E4B0000895CF93C82F60E083E891EE0F94D1F1D7
:10E4C0008C2F0F94B6F1CF910D94F1F14F925F9292
:10E4D0006F927F92AF92BF92CF92DF92EF92FF92B4
:10E4E0000F931F93CF93DF93CDB7DEB766970FB629
:10E4F000F894DEBF0FBECDBFC82E80E1D82EA12C70
:10E500007E0181E1E80EF11C9EE2B92E41305105F9
:10E51000E1E06E07710558F0862F4B8B5C8B6D8B9D
:10E520007E8B0F9407F27E896D895C894B89852FDC
:10E530004B8B5C8B6D8B7E8B0F9407F24B89842FFA
:10E540000F9407F280E20F94B6F18DE20F94B6F1CA
:10E5500080E20F94B6F119828E010F5F1F4F4B8935
:10E560005C896D897E892A013B01F1E0CF1661F05B
:10E57000CF1630F082E0C81213C0F201A08010C0A4
:10E580006BBEF201A7900CC0C2014B8B5C8B6D8BF4
:10E590007E8B0F94B8FBA82E4B895C896D897E8990
:10E5A0008A2D4B8B5C8B6D8B7E8B0F9407F280E2F8
:10E5B0000F94B6F180EE8A0D4B895C896D897E8956
:10E5C000F8018F3510F4A08201C0B082FFEF4F1A1E
:10E5D0005F0A6F0A7F0A0F5F1F4F0E151F0509F0B4
:10E5E000C4CF405F5F4F6F4F7F4F198ACE010196B6
:10E5F0004B8B5C8B6D8B7E8B0F94FBF10F94F1F149
:10E60000DA944B895C896D897E89D1107FCF6696BB
:10E610000FB6F894DEBF0FBECDBFDF91CF911F9133
:10E620000F91FF90EF90DF90CF90BF90AF907F90D1
:10E630006F905F904F900895CF93DF93CDB7DEB783
:10E64000C053D1400FB6F894DEBF0FBECDBF01E27C
:10E650000EBF0FEF0DBF94B7F894A89514BE80912C
:10E66000600088618093600010926000789493FF4E
:10E6700005C0E0910402F09105021995279A2F9A9E
:10E680008091C00082608093C00080E18093C400CC
:10E6900088E18093C1000000C12CD12C760147ECA9
:10E6A000842E4BE1942EA12CB12C00E010E080913F
:10E6B000C00087FF04C0C8010196B9F326C0011548
:10E6C0001105C9F725E02A95F1F700003FEFC31ABD
:10E6D000D30AE30AF30A91E080E041E2C4164EE473
:10E6E000D406E104F10408F490E0092F182FC701C3
:10E6F000B601A50194010F9482FB672B682B692B4F
:10E70000B1F685B1805885B9D2CF8130910511F02D
:10E710000D944CFBC65DDE4F19821882CA52D1405F
:10E72000A12CB12C212C812CCA5DDE4F19821882BC
:10E73000C652D140CE5DDE4F188219821A821B82EA
:10E74000C252D140C12CD12C760100E010E040E053
:10E750000197F1F080E090E0DC012091C00027FDFE
:10E7600017C00196A11DB11D813052E195075AE7EE
:10E77000A507B10590F3412C512C32016BBEF2017B
:10E7800087919691019631F3EE27FF270994E2CF06
:10E790008091C600C65DDE4F28813981CA52D140C2
:10E7A0002F5F3F4FC65DDE4F39832883CA52D14069
:10E7B000813209F024C52A30310508F020C53FEF29
:10E7C000A31AB30A53E0A516B10409F01AC535E03F
:10E7D000A32EB12C29E1822E912C81E20F94B6F167
:10E7E00061E0861A910881149104B9F70F94F1F150
:10E7F00071E0A71AB108A114B10461F710920E02DA
:10E8000010920F02109210021092110210920A023E
:10E8100010920B0210920C0210920D02109206023E
:10E8200010920702109208021092090260E089EE2D
:10E8300092EE0F94F7F133243A9460E08DED92EE6E
:10E840000F94D1F10F9452F2982F803608F09F75F3
:10E85000903280F0892FC05DDE4F9883C053D14045
:10E860000F94B6F180E20F94B6F1C05DDE4F98814F
:10E87000C053D140963409F4D8C108F099C09034FF
:10E8800009F40AC108F08DC0903309F4EFC09F333A
:10E8900009F0AFC462E08BE691EE0F94F7F160E00F
:10E8A00089EE92EE0F94F7F160E089EC92EE0F940E
:10E8B000D1F160E086E392EE0F94F7F160E08AEB2D
:10E8C00092EE0F94D1F160E08AE093EE0F94F7F1AD
:10E8D00060E08BEA92EE0F94D1F186E30F94B6F1EB
:10E8E0000F94F1F160E08DE892EE0F94D1F160E0C9
:10E8F00087E292EE0F94F7F160E08CE992EE0F94CC
:10E90000D1F160E08DE292EE0F94F7F160E08EE7D6
:10E9100092EE0F94D1F18EE10F9407F288E90F94F3
:10E9200007F281E00F9407F20F94F1F160E08FE6B7
:10E9300092EE0F94D1F199E0492EE0E0F0E04092A0
:10E94000570084910F9407F20F94F1F160E080E694
:10E9500092EE0F94D1F1E3E0F0E040925700849101
:10E960000F9407F20F94F1F160E081E592EE0F94BD
:10E97000D1F1E2E0F0E04092570084910F9407F269
:10E980000F94F1F160E082E492EE0F94D1F1E1E0B6
:10E99000F0E04092570084910F9407F20F94F1F148
:10E9A0004CCF923409F4FDC0953409F414C121C44C
:10E9B000913509F49EC168F5983409F45AC19C3424
:10E9C00009F017C462E08EE191EE0F94F7F181E453
:10E9D0000F9459F282E40F9459F283E40F9459F2A0
:10E9E00084E40F9459F285E40F9459F286E40F946D
:10E9F00059F287E40F9459F288E40F9459F28AE4AB
:10EA00000F9459F28BE40F9459F28CE40F9459F25D
:10EA100014CF963509F477C1993509F4E6C29235D9
:10EA200009F0E7C362E08CE091EE0F94F7F14091BA
:10EA30000E0250910F02609110027091110282E05B
:10EA40000F9466F280910E0290910F02A091100235
:10EA5000B09111029F5FAF4FBF4F80930E02909312
:10EA60000F02A0931002B0931102E7CE62E087E795
:10EA700091EE0F94F7F110920A0210920B0210928D
:10EA80000C0210920D0210920E0210920F021092C0
:10EA900010021092110261C062E08DE591EE0F94B8
:10EAA000F7F160E08FE991EE0F94F7F10F94F1F137
:10EAB000A12CB12CC50187519D41AA2797FDA09596
:10EAC000BA2FABBFFC0197908AE2482E9414B9F09C
:10EAD000A11422E0B20699F0692DC5010F94C0FB84
:10EAE000911006C060E08BEA91EE0F94D1F103C063
:10EAF000892D0F94B6F1FFEFAF1ABF0ADBCF0F9449
:10EB0000F1F10F94F1F160E084E991EE0F94F7F1E7
:10EB10000F94F1F1A12CB12C812C912CC4018751BF
:10EB20009D41AA2797FDA095BA2FABBFFC01779016
:10EB30005AE275121BC00F94F1F10F94F1F160E0ED
:10EB400088E891EE0F94D1F161E070E0C5010F9477
:10EB50001EF20F94F1F10F94F1F11092060210924F
:10EB60000702109208021092090267CE811462E037
:10EB7000960609F3C4010F94B8FB682E811106C0F4
:10EB800060E08BEA91EE0F94D1F102C00F94B6F1E0
:10EB9000671419F03FEFA31AB30A4FEF841A940ACF
:10EBA000BDCF62E081E591EE0F94F7F1279A2F9A9D
:10EBB0008091C00087FD0CC02F9884E690E00F94F0
:10EBC000C2F12F9A84E690E00F94C2F1F1CF12B80F
:10EBD0000F9452F232CE62E083E491EE0F94F7F19B
:10EBE000409106025091070260910802709109025B
:10EBF00081E00F9466F28091060290910702A09145
:10EC00000802B09109029F5FAF4FBF4F8093060289
:10EC100090930702A0930802B093090281159041D6
:10EC2000A105B10508F409CE98CF62E086E391EE24
:10EC30000F94F7F140910A0250910B0260910C027F
:10EC400070910D0280E00F9466F280910A0290911B
:10EC50000B02A0910C02B0910D029F5FAF4FBF4F0E
:10EC600080930A0290930B02A0930C02B0930D02C2
:10EC7000E4CD62E08FE291EE0F94F7F160E087E778
:10EC800091EE0F94F7F160E08BE691EE0F94F7F1BF
:10EC900060E08DE591EE0F94F7F160E081E591EE93
:10ECA0000F94F7F160E083E491EE0F94F7F160E0E8
:10ECB00086E391EE0F94F7F160E08FE291EE0F940E
:10ECC000F7F160E08EE191EE0F94F7F160E087E1FB
:10ECD00091EE0F94F7F160E08CE091EE0F94F7F174
:10ECE00060E083EF90EE0F94F7F160E086EE90EE37
:10ECF00083C262E087E191EE0F94F7F1A12CB12C71
:10ED000099249394D5C262E083EF90EE0F94F7F1CB
:10ED100060E08AE093EE0F94F7F160E082EF91EE0D
:10ED20000F94F7F1C85DDE4F19821882C852D140A6
:10ED3000C25EDE4F188219821A821B82CE51D140E8
:10ED4000C25EDE4F488059806A807B80CE51D140C0
:10ED50007694679457944794C45DDE4F48825982F5
:10ED60006A827B82CC52D140C85DDE4F28813981D6
:10ED7000C852D1402F5F3F4FC85DDE4F3983288393
:10ED8000C852D14062E070E0C9010F941EF280E2E7
:10ED90000F94B6F18DE20F94B6F180E20F94B6F1C4
:10EDA00080E00F9407F2C45DDE4F8881CC52D140E1
:10EDB0000F9407F280E20F94B6F18DE30F94B6F151
:10EDC00080E20F94B6F1C25EDE4F488159816A81BC
:10EDD0007B81CE51D1406BBFFA019790DB01CA0114
:10EDE0000196A11DB11DABBFFC018790DB01CA01DB
:10EDF0000296A11DB11DABBFFC01B7902A013B01DA
:10EE000053E0450E511C611C711C6BBEF201A790B2
:10EE1000C25EDE4F288139814A815B81CE51D1406B
:10EE20002C5F3F4F4F4F5F4FC25EDE4F28833983C9
:10EE30004A835B83CE51D140482C512C612C712CDC
:10EE4000762C652C542C4424490C511C611C711CDB
:10EE5000882D0F9407F280E20F94B6F1892D0F945C
:10EE600007F280E20F94B6F18A2D0F9407F280E248
:10EE70000F94B6F18B2D0F9407F280E20F94B6F148
:10EE80003FEF431653066104710431F460E088EEED
:10EE900091EE0F94D1F19CC0D301C2018827907CE0
:10EEA000AA27BB278115904CA105B10539F55FE371
:10EEB000552266247724C45DDE4F88809980AA801D
:10EEC000BB80CC52D140840C951CA61CB71C880C6E
:10EED000991CAA1CBB1C60E081EE91EE0F94D1F14D
:10EEE000852D0F9407F2842D0F9407F280E20F9482
:10EEF000B6F18EE30F94B6F180E062C06EE0462278
:10EF0000E89450F8662477247CE0471674E95706A5
:10EF10006104710409F05CC04A2C512C612C712CE5
:10EF2000762C652C542C44244B0C511C611C711CF8
:10EF3000892D817090E0A0E0B0E0DC01992788275E
:10EF4000480E591E6A1E7B1E892D807F90E0A0E02E
:10EF5000B0E061E1880F991FAA1FBB1F6A95D1F726
:10EF6000480E591E6A1E7B1E882D8170882E912C9A
:10EF7000A12CB12C75E1880C991CAA1CBB1C7A959C
:10EF8000D1F7480C591C6A1C7B1C53014201880CA8
:10EF9000991CAA1CBB1C60E08CED91EE0F94D1F182
:10EFA000862D0F9407F2852D0F9407F2842D0F9470
:10EFB00007F280E20F94B6F18EE30F94B6F18A2D3A
:10EFC0000F9407F2892D0F9407F2882D0F9407F202
:10EFD0000F94F1F1C85DDE4F28813981C852D140CC
:10EFE0002933310509F0ACCE28CC62E086EE90EEF4
:10EFF0000F94F7F160E081ED91EE0F94D1F10F9451
:10F0000052F2982F9F75892FC05DDE4F9883C053B1
:10F01000D1400F94B6F10F94F1F1C05DDE4F9881AD
:10F02000C053D1408FEB890F8A3108F0DEC096348F
:10F0300009F471C098F4933409F441C038F4913460
:10F0400019F1923409F0CDC034B82BC0943409F4CE
:10F0500045C0953409F0C5C03DB84FC09A3409F495
:10F0600089C048F4973409F465C0983409F0B9C0F0
:10F07000309201016EC09B3409F48FC09C3409F0BA
:10F08000B0C030920A019CC031B88091C00087FDA9
:10F090009ECD82B1809582B988EC90E00F94C2F148
:10F0A000F4CF8091C00087FD08C085B1809585B9F7
:10F0B00088EC90E00F94C2F1F4CF15B889CD37B841
:10F0C0008091C00087FD08C088B1809588B988EC20
:10F0D00090E00F94C2F1F4CF18B87ACD3AB880918D
:10F0E000C00087FD08C08BB180958BB988EC90E09B
:10F0F0000F94C2F1F4CF1BB86BCD8091C00087FD97
:10F1000008C08EB180958EB988EC90E00F94C2F162
:10F11000F4CF1EB85DCD30BA8091C00087FD08C025
:10F1200081B3809581BB88EC90E00F94C2F1F4CF5D
:10F1300011BA4ECD33BA8091C00087FD08C084B3A8
:10F14000809584BB88EC90E00F94C2F1F4CF14BAA0
:10F150003FCD8091C00087FD0AC08091020180955B
:10F160008093020188EC90E00F94C2F1F2CF1092EC
:10F1700002012ECD309204018091C00087FD0AC0AB
:10F180008091050180958093050188EC90E00F94B3
:10F19000C2F1F2CF109205011BCD30920701809190
:10F1A000C00087FD0AC08091080180958093080106
:10F1B00088EC90E00F94C2F1F2CF1092080108CDD4
:10F1C0008091C00087FD0AC080910B0180958093DB
:10F1D0000B0188EC90E00F94C2F1F2CF10920B017A
:10F1E000F7CC60E08EEB91EE07C060E08DEA91EE27
:10F1F00003C060E088ED92EE0F94F7F11ECBA12CD6
:10F20000B12C4330E9F020F4413079F040F011C0E6
:10F21000453031F1C8F0463009F443C045C08B3168
:10F2200009F44EC280E090E093CA8826282E42E07E
:10F23000F9CF082F10E0102F0027882643E0F2CFE7
:10F24000082B882644E0EECF8E3009F03DC2882698
:10F25000CA5DDE4F19821882C652D14045E0E2CF26
:10F26000CA5DDE4F28813981C652D1402F5F3F4FA2
:10F27000E1E0F0E0EC0FFD1FCA5DDE4F48805980F1
:10F28000C652D140E40DF51D808388262017310732
:10F2900009F41CC2CA5DDE4F39832883C652D140AF
:10F2A000C1CF881111C203C0473009F0BBCF912CE8
:10F2B0002981233109F4DAC060F5263009F4C3C08E
:10F2C000F8F4223009F4B7C1233009F463C02130C7
:10F2D00009F0AAC11A8288E08B8381E48C8386E5D9
:10F2E0008D8382E58E8389E48F8383E5888780E53B
:10F2F00089878FE58A8782E38B870BE010E09BC1CB
:10F30000213109F496C108F091C0203109F4ACC054
:10F310008BC1283109F462C048F4253109F4A6C034
:10F3200008F436C1263109F433C17EC12A3109F40B
:10F3300049C008F46AC02B31D1F12D3109F074C1F4
:10F340009D81903339F48F818823B1F08130B1F4FD
:10F3500088E917C0892F807599F0903521F489E0EC
:10F36000E0E0F0E005C0983559F489E0E3E0F0E032
:10F3700080935700849105C08EE103C081E001C0F5
:10F3800080E01A821B829C831D828E831F8207E08D
:10F3900010E051C1EA81E059E33028F4F0E0E05098
:10F3A000FE4F808101C080E01A828B833CC08D813A
:10F3B000882321F0813021F488E924C08EE122C025
:10F3C00081E020C01A82E1E0F0E089E080935700FC
:10F3D000E491EB831C8204E010E02DC18B81803529
:10F3E00059F48C81883021F4E2E0F0E089E007C034
:10F3F00089E0E0E0F0E003C089E0E3E0F0E0809342
:10F40000570084911A828B83E5CF8D81836C99E0BC
:10F41000E1E0F0E0082E90935700E89507B600FC75
:10F42000FDCF1A821B8203E010E005C180EC8A83C5
:10F4300002E010E0CE5DDE4F188219821A821B8234
:10F44000C252D140F8C08A81CB80D12CE12CF12C62
:10F450007601DD24CC24F82A8D81C82A8C81D82A13
:10F46000CC0CDD1CEE1CFF1C1A82E0C08A8190E0EF
:10F47000982F88273B81832B233109F05CC0CE5D18
:10F48000DE4F488059806A807B80C252D14041144F
:10F4900020EC520623E062067104E8F423E0F20156
:10F4A00060925B0020935700E89507B600FCFDCF03
:10F4B000CE5DDE4F288139814A815B81C252D140C5
:10F4C0003F5F4F4F5F4FCE5DDE4F288339834A83C6
:10F4D0005B83C252D1404B85260137019E01255FD7
:10F4E0003F4F61E0D90112969D01FD013197708176
:10F4F00050E0572B0A01F20160925B0060935700C5
:10F50000E895112442E0440E511C611C711C0297C5
:10F51000009711F04C91E6CF85E0F601E0925B0098
:10F5200080935700E89507B600FCFDCF81E18093FA
:10F530005700E89529C0FE013B969C01B701A60142
:10F5400041BD452E562E672E772442BC4F5F5F4F3C
:10F550006F4F7F4FA191A0BDFA9AF99AF999FECF0A
:10F56000215031092115310559F72C0151E0451A77
:10F570005108612C712C6FEF461A560A660A760AFA
:10F580004C0C5D1C6E1C7F1C1A82730162014EC004
:10F590008A8190E0982F88273B81832B8C010D5F17
:10F5A0001F4F1A822431A1F4DE011396EBBEF6013F
:10F5B000279136912C931296FD013197308372E09A
:10F5C000C70ED11CE11CF11C0297009779F72AC0E5
:10F5D000FE0133969C01B701A60141BD452E562E72
:10F5E000672E772442BC4F5F5F4F6F4F7F4FF89A73
:10F5F000A0B5A193215031092115310571F7AC0156
:10F600004150510960E070E04F5F5F4F6F4F7F4F97
:10F61000C40ED51EE61EF71EA3E0B0E0AC0FBD1F62
:10F62000A80FB91F1C9207C080EC8A8302E010E08B
:10F6300002C0992493948BE10F94B6F1822D0F941C
:10F64000B6F1812F0F94B6F1802F0F94B6F18EE0B2
:10F650000F94B6F135E1832E822480268126CE01D7
:10F6600001963C01080F191F6016710641F0F30165
:10F6700051903F01852D0F94B6F18524F5CF882D4B
:10F680000F94B6F1239485B1805885B9911004C0C8
:10F6900080E090E00D94A5F327982F9884E690E001
:10F6A0000F94C2F100008091C0008D7F8093C00054
:10F6B00081E180935700E895EE27FF270994FFCF5B
:10F6C0002BE1822E41E0AECD40E0ACCDCA5DDE4FF5
:10F6D00019830883C652D14046E0A4CD97FB072E7C
:10F6E00016F4009407D077FD09D00F94A4FB07FC13
:10F6F00005D03EF4909581959F4F08957095619542
:10F700007F4F0895A1E21A2EAA1BBB1BFD010DC05D
:10F71000AA1FBB1FEE1FFF1FA217B307E407F507C1
:10F7200020F0A21BB30BE40BF50B661F771F881F9D
:10F73000991F1A9469F760957095809590959B0133
:10F74000AC01BD01CF010895AA1BBB1B51E107C04D
:10F75000AA1FBB1FA617B70710F0A61BB70B881F61
:10F76000991F5A95A9F780959095BC01CD010895F0
:10F77000F999FECF92BD81BDF89A992780B5089579
:10F78000262FF999FECF1FBA92BD81BD20BD0FB6BD
:10F79000F894FA9AF99A0FBE01960895F894FFCF5B
:04F7A0000F020A004A
:040000033000E000E9
:00000001FF
